:020000020000FC
:100000000C9400040C940A000C9414000C941E0030
:100010000C942800C09B02C0C09801C0C09A00E0A8
:10002000102E01E0E02E1EC0C19B02C0C19801C08D
:10003000C19A00E0102E02E0E02E14C0C29B02C064
:10004000C29801C0C29A00E0102E04E0E02E0AC05F
:10005000C39B02C0C39801C0C39A00E0102E08E001
:10006000E02E00C00FEF02BB0EE1302E01E00F9337
:100070003F9200E3302E06E03A94F1F73A940A9565
:10008000D9F73F900F913A9491F70A9581F70FE7CE
:1000900002BB0EE1302E01E00F933F9200E3302EC1
:1000A00006E03A94F1F73A940A95D9F73F900F9108
:1000B0003A9491F70A9581F700B30E21002341F499
:1000C00000E0202EC49B02C0C49801C0C49A9CC00A
:1000D0000EE1302E01E00F933F9200E3302E06E058
:1000E0003A94F1F73A940A95D9F73F900F913A94E0
:1000F00091F70A9581F70FEB02BB0EE1302E01E07C
:100100000F933F9200E3302E06E03A94F1F73A94D1
:100110000A95D9F73F900F913A9491F70A9581F794
:1001200000B30E21002341F401E0202EC59B02C044
:10013000C59801C0C59A68C00EE1302E01E00F934A
:100140003F9200E3302E06E03A94F1F73A940A9594
:10015000D9F73F900F913A9491F70A9581F70FEDF7
:1001600002BB0EE1302E01E00F933F9200E3302EF0
:1001700006E03A94F1F73A940A95D9F73F900F9137
:100180003A9491F70A9581F700B30E21002341F4C8
:1001900002E0202EC69B02C0C69801C0C69A34C099
:1001A0000EE1302E01E00F933F9200E3302E06E087
:1001B0003A94F1F73A940A95D9F73F900F913A940F
:1001C00091F70A9581F70FEE02BB0EE1302E01E0A8
:1001D0000F933F9200E3302E06E03A94F1F73A9401
:1001E0000A95D9F73F900F913A9491F70A9581F7C4
:1001F00000B30E21002341F403E0202EC79B02C070
:10020000C79801C0C79A00C0C09B02C0C09801C077
:04021000C09A1AE096
:100800000FEF0DBF00E10EBF00EF01BB0FE002BB19
:100810000FEF07BB0FE009BF00E00ABFFF20F1F3B5
:0E082000FF242227332720E3210D30E3310D82
:00000001FF
